:020000041000EA
:1000000000B5324B212058609868022188439860DF
:10001000D860186158612E4B002199600221596106
:100020000121F02299502B49196001219960352056
:1000300000F044F80222904214D00621196600F024
:1000400034F8196E01211966002018661A6600F04E
:100050002CF8196E196E196E052000F02FF8012189
:100060000842F9D1002199601B49196000215960AB
:100070001A491B48016001219960EB211966A021F2
:10008000196600F012F800219960164914480160C1
:100090000121996001BC002800D000471248134993
:1000A000086003C880F30888084703B5996A0420EC
:1000B0000142FBD001200142F8D103BD02B5186610
:1000C0001866FFF7F2FF186E186E02BD00000240BE
:1000D000000000180000070000035F00212200005C
:1000E000F4000018222000A00001001008ED00E03C
:1000F00000000000000000000000000074B24E7A12
:1001000000200420F7010010C3010010C5010010F9
:10011000C1010010C1010010C1010010C101001097
:10012000C1010010C1010010C1010010C701001081
:10013000C1010010C1010010C9010010CB01001065
:10014000CD010010CD010010CD010010CD01001037
:10015000CD010010CD010010CD010010CD01001027
:10016000CD010010CD010010CD010010CD01001017
:10017000CD010010CD010010CD010010CD01001007
:10018000CD010010CD010010CD010010CD010010F7
:10019000CD010010CD010010CD010010CD010010E7
:1001A000CD010010CD010010CD010010CD010010D7
:1001B000CD010010CD010010CD010010CD010010C7
:1001C00000BE00BE00BE00BE00BE00BEEFF3058054
:1001D000103800BEF2EB8871A4740010D0740010C7
:1001E0003802001090A31AE71E481F49086006C88D
:1001F00081F3088810471D480068002801D019487D
:10020000F3E70DA40ECC002902D000F012F8F9E7B4
:100210001749184A002000E001C19142FCD116495B
:100220008847164988471649884700BEFDE701C937
:1002300001C29A42FBD37047D0740010C000002066
:1002400090100020A0840010000004200000042072
:10025000A084001000100420001004200000000002
:10026000704700000000000008ED00E0000000D032
:1002700090100020702302207D200010F902001051
:1002800075200010F8B5C04606480749091A8B10BA
:10029000C90FC91810B5491003D0044B002B00D06A
:1002A000984710BD90100020901000200000000022
:1002B000054B10B5002B03D00449054800E000BFF2
:1002C000FFF7E2FF10BDC04600000000701F0020D5
:1002D000B06F001070B5D024802519202406AD041D
:1002E00000F04CF865626420656106F097F86420C0
:1002F000A56106F093F8F6E730B583B001F0CAFFC8
:1003000000238022019301330B49520000930B48D4
:10031000002305F0AFFD0A4D280002F00DF8094C4E
:10032000200002F009F805F0C5FE280002F004F8EC
:10033000200002F001F8F8E7B06F0010D5020010BD
:10034000BC6F0010DC6F0010094A83009A1810B5CA
:1003500014684022544080322240064CC000A4461B
:1003600063441A60044B9C466044416010BDC04623
:1003700004C0014004D00140004001400123D022CC
:100380008340120693629361094A83009A181168A8
:100390004022514080320A400649C0008C466344E6
:1003A0001A60054B9C460523604443607047C04675
:1003B00004C0014004D00140004001408023DB051F
:1003C0001868000F7047C0460FB400B5084883B0E6
:1003D00001F0B2FF049B002B07D005A91800019182
:1003E00001F02EFE034801F0A7FF012001F040FEBE
:1003F000F46F00100470001010B50148FFF7E4FF1F
:100400000870001070B5EFF3108C72B60D4D2B68AC
:10041000002BFCD0BFF35F8F0724CB08C618C05C4D
:1004200001230C40A3401C000440034207D11843A1
:100430003070BFF35F8F2C608CF3108870BD10009C
:10044000FFF7C2FF2C0100D0F8B54746CE468846DC
:1004500080B5EFF3108C72B61C4D2C68002CFCD0CC
:10046000BFF35F8F9A4222D807210126894602E016
:100470000132934218D34D4637001540AF40D4089F
:100480000119045D2742F3D110003C430C70BFF307
:100490005F8F00220D4B1A608CF3108800280EDB52
:1004A000C0BCB946B046F8BD01204042EFE7BFF3FB
:1004B0005F8F00232B608CF310880120404243465D
:1004C000002BEDD00898FFF77FFFC0462C0100D02D
:1004D000044A1078431CDBB2172B00D91023137089
:1004E0007047C046A00F002010B5064B064C82B0E6
:1004F0000100009318221F232000FFF7A5FF02B080
:1005000010BDC04618700010001B00200021044BD5
:10051000044ABFF35F8F02C39342FAD17047C046CB
:10052000000100D0800100D0054B064A1360064A46
:10053000136053609360D36013615361936170479C
:100540008080808000E400E004E400E01F23184085
:100550001E3B8340002905D0C021044A4900535066
:1005600013607047802201498B50FAE700E100E0F8
:1005700001228240034B1B6813405A1E9341D8B29C
:100580007047C04600E100E001238340014A136048
:100590007047C04600E200E0064B10309B688000C8
:1005A000C358054A00209B1A2F229A424041C0B2EC
:1005B0007047C04600ED00E0A40F002070B50D00AC
:1005C000EFF3108672B60F4A1368002BFCD0BFF30E
:1005D0005F8F0D4B10309B6884001B590B4A934270
:1005E00003D09D4201D001F02FF9074B9B681D51AC
:1005F000BFF35F8FBFF35F8F0022024B1A6086F359
:10060000108870BD240100D000ED00E0CD01001085
:10061000F0B557464E46DE464546E0B585B0060085
:1006200000911700EFF3108B72B66A4A1368002B23
:10063000FCD0BFF35F8F0025674B5D579A46002DB6
:1006400000DAA9E06B00654C01935B199B009846AA
:10065000A146C1444B4652469B7910361370604BFD
:10066000B6009B6899590B1B2F2B33D95D4B9942D0
:1006700000D0ACE0019B42469C465B4B6544AD001C
:1006800063535A4B0232A218043B9B1A1B05584A6B
:100690005B0D651913436B80564B0121AB80FF2323
:1006A000AB71009BEF71AB604B460B4319004C4B99
:1006B0009B689951BFF35F8FBFF35F8F0022454B5B
:1006C0001A608BF3108805B0F0BCBB46B246A94651
:1006D000A046F0BD01200A008243D3798C46BB427C
:1006E00031D84546130044491B1B5B415943090D52
:1006F0003D4B63533D4B02356519043B5B1B1B05AA
:100700003B4D5B0D2B43AA464D466B800425AC4602
:100710005546E044131F44441B1B1B055B0D1D4342
:100720004B46997100999D8099604946DF71334B22
:1007300001431360BBE75800C01880002018C1793E
:10074000B9422FD902000623D356002BF3DA0293C5
:100750002B4B61460393131D9A4604235B429C4630
:10076000E14450464B461B1A1B055B0D9C46204B33
:10077000957198466346404603439380019B5A19FE
:100780009200039BA418A380029B1C4AA371009BA8
:100790002260E771A3608AE701F056F8002553460E
:1007A0005D574FE7908802934005131D9A46031545
:1007B00061469C464046D444634604302018181ACB
:1007C000E0230005400D1B0218430390C5E701F02C
:1007D0003BF84FE7240100D068230220A40F00203B
:1007E00000ED00E0CD01001000A1FFFFD40F0020BC
:1007F00000E0FFFF01BDFFFFAAAA000001488047FB
:1008000001BD0000F0B5DE4657464E464546E0B510
:100810000C0083B0EFF3108872B6634A1368002BA4
:10082000FCD0BFF35F8F614B61499A6803001033BE
:100830009F00D55901938D4243D0A54254D05D4EBF
:10084000AA1B2F2A3DD85C4B9B461B689946012367
:100850001A009C4682404B4613401F22994663462D
:10086000024093409A4680225B4650469850BFF320
:100870005F8FEFF305839B46002B37D0019B5B45D1
:1008800001D000F0E1FF01232A009A4390688442DE
:1008900008D176E04B005B189B00F31898688442FF
:1008A00036D01A00062151560029F3DA844254D07A
:1008B0004B46002B27D0C02251463F4B5200995047
:1008C00019603A4B9B68DD51BFF35F8FBFF35F8FB9
:1008D0000022354B1A6088F3108803B0F0BCBB4689
:1008E000B246A946A046F0BD0D00EAE72A006346DD
:1008F0009A4390688442D5D10620105613000028F0
:100900000ADA0D0031E0802351462B4AD150D8E756
:1009100006201856002821DB42001118890074189F
:100920008B46A1689960E179D97106216156997168
:10093000002924DBA488F11A640524155C440919F4
:1009400009051E4C490D2143998013181C4A9B0030
:100950001178F31899711070AAE71300594600290D
:1009600014D1FF3191711749918015490A789A7114
:10097000154A9B1B5B415A43120D0A7098E71149B7
:10098000E2E70620105613000028C5DA0F4A104986
:10099000D21A083A5002400D014399800D4952087D
:1009A0000A43DA8084E7C046240100D000ED00E06D
:1009B000CD010010A40F002000E100E000E0FFFFE7
:1009C0006823022001BDFFFFAAAA0000DE0F00205D
:1009D00000F0FFFF00F8FFFF10B5830804000320BC
:1009E0002040FF24054AC0009446844081409B007B
:1009F00063441A68A2430A431A6010BD00E400E091
:100A000070B501240443EFF30581EFF3108C72B647
:100A1000214A1368002BFCD0BFF35F8F1F4B0500EA
:100A20001F4AED1A6D416A43120D1E4D8900AE68D2
:100A300052B27658A6421CD00621595691421CD07B
:100A400012215956914222D01E215956914220D04E
:100A50002A2159560324914210D0134B19781A7049
:100A60008171BFF35F8F00220B4B1A608CF31088EB
:100A700070BDAB680D4C5C50EFE7002461000919B4
:100A800089005B18FF21997109499980E5E70124E4
:100A9000F4E70224F2E7C046240100D0A40F0020AE
:100AA000AAAA000000ED00E068230220CD0100109A
:100AB00001BDFFFF10B5084B084C82B00100009348
:100AC000002205232000FFF7BFFC002801DB1F23C5
:100AD000181A02B010BDC046347000106C230220FA
:100AE000024B9C466144890001607047400000341D
:100AF000F8B5124C124DAC4212D2012600277642B4
:100B00002368002B0DD0FFF7E3FC01002000FFF766
:100B1000E7FF66602772BFF35F8F0C34AC42EFD300
:100B2000F8BDFFF7D5FC01002000FFF7D9FF666094
:100B3000BFF35F8F0834AC42E2D3F1E780100020AE
:100B40009010002010B50400FFF7C2FC0100200047
:100B5000FFF7C6FF01235B426360BFF35F8F10BDE9
:100B600010B504000120FFF7BFFC034BC3189B0026
:100B70002360BFF35F8F10BD40000034034B9C46E1
:100B8000614489000160BFF35F8F7047400000340B
:100B9000F0B5DE4657464E464546E0B587B0EFF322
:100BA0000583032201251A40954091008846A946F5
:100BB000B34B03925C58B34B1D60B34B04934B464D
:100BC000B24843630823E55E002D37DAA3881BB2E1
:100BD000002B00DBADE0A379002B00D0EEE0082372
:100BE000E05E002820DB430062691B18DB00D3189D
:100BF0009E68DD68731C00D111E1A44801004144E6
:100C0000826A0B69B71A9B1A9F4215D30123026AA5
:100C1000039883401A420FD09C4800F049FB8D4254
:100C200002DCCCD18642CAD940BF07B0F0BCBB467B
:100C3000B246A946A046F0BD0E61EDE762696B00C1
:100C400092465B19DB009A4453469E68DF6800F0C9
:100C50002FFB8F42BADC00D103E1002F00DAE8E07D
:100C60005246534652691B699346049A934200D1F7
:100C7000D9E052460821605E52880004594610436C
:100C80009847009001910099019A0B0010001343BE
:100C900000D1CEE013000A00B61A9F41002806DBFF
:100CA0007A4800F005FB009E019F36184F415346DD
:100CB0009E60DF6000229A5E002A00DA86E7530019
:100CC00099186069C900411802938B68C9689B46EE
:100CD000B94200DD7AE702D1B34200D976E70823B2
:100CE0009C46A444059565462281A446029B2C009F
:100CF00006E053009918C90041188D68C968AB46D1
:100D00009B18DB00C318B94206DC00D1B3E01C001D
:100D10000023E25E002AECDA230064469C46534638
:100D20001A806346059D1D80A3881BB2002B00DA44
:100D300051E72269EFF3108172B61368002BFCD0E3
:100D4000BFF35F8F0123A7885B42A3803FB2236973
:100D5000BFF35F8F00221A6081F31088002F00DA42
:100D600039E72300083322009A4666697B00DB19C5
:100D7000DB00F318996850468C460824115FDD6843
:100D8000002910DB029306E0AB4244D00023E15E71
:100D90002000002906DB4C006418E4003419E368E5
:100DA000AB42F1DD029B078000201F5E1980002FFF
:100DB000DCDA1400A379002B00D110E70023A37123
:100DC00026000823E15E08364B1C00D12CE7080002
:100DD000A246656902E03E004B1C1AD04B005B182E
:100DE000DB00EF180A008C46E95E7B881BB2002B03
:100DF000F1DA01235B42DC17BB60FC60824205D064
:100E0000534631801B893B8053461A8160464B1CF8
:100E1000E4D15446E5E6A3686345B7D9C2E76B1C45
:100E200000D0EAE6F8E65B4658461B69984700287A
:100E30001BD153461B8822692381EFF3108372B6BE
:100E400011680029FCD0BFF35F8F514662880A8089
:100E500022696580BFF35F8F0021116083F31088E2
:100E6000B4E6864200D8F8E6B0E65B461A685B68EE
:100E70000092019307E7B34500D848E74CE7C04626
:100E8000901F00203C700540910B00100040054071
:100E9000074810B50268EFF3108172B61368002B93
:100EA000FCD0BFF35F8F04F07FF90020002110BD5C
:100EB0004C22002070B52E4C2569002D04D00A214B
:100EC0002C48FFF70DFE70BD2B4E0321300000F0C3
:100ED000E5F9E660FFF7FCFA284B03229C46D02395
:100EE00022701B061B6801216370254B6044A360C0
:100EF0000F23800020610220638063694942A18042
:100F000019800231198647311D83585218315A52BF
:100F100075325C39995218320131995218320131C7
:100F20009952183201319952083518329D520231C6
:100F300018329952183201319952183201319952AE
:100F40001832013199521832013199521832013157
:100F500099520C4B0C49DC6001303562FFF72EFBD7
:100F600001210320FFF7F2FA084B1D60A7E7C046F6
:100F7000EC0F00204C2200200040054040000034CF
:100F8000FFFF1000901F0020910B001038600540FB
:100F900000487047EC0F0020F8B51F0008AB1B7825
:100FA00004001600002B08D100F08AF932003B0043
:100FB000121A8B41002B00DA52E02269EFF3108005
:100FC00072B61368002BFCD0BFF35F8F0223E15E83
:100FD00063694A005218D2009B182269002936DB47
:100FE0001D886580BFF35F8F0025156080F3108832
:100FF000069A9E60DF601A61079A5A615A88013228
:101000005204520C101C002A1FD082B258800804CF
:1010100010432669EFF3108772B63268002AFCD0BD
:10102000BFF35F8FA2881A80A1802369BFF35F8F0F
:1010300000221A6087F310880A4923788C4601320F
:101040009A40E36863441A60F8BD0120DDE7BFF30E
:101050005F8F0023136080F3108801204042F3E784
:101060000020F1E73C20000070B501000469EFF3B7
:10107000108C72B620680028FCD0BFF35F8F02206E
:101080000D5E4C6968004019C00024180869002DE5
:1010900036DB26884E80BFF35F8F002606608CF318
:1010A0001088E36063880498013320615B0405982D
:1010B0005B0CA26060611A1C002B1FD093B2280445
:1010C000628018430A69EFF3108C72B61368002B24
:1010D000FCD0BFF35F8F8B8823808D800B69BFF3BB
:1010E0005F8F00221A608CF310880B7801329A40CF
:1010F000CB6808498C4663441A6070BD0122DDE765
:10110000BFF35F8F002303608CF3108801204042FF
:10111000F3E7C0463C20000010B543890A1493420F
:101120001ADD53009B184269DB00D3180469EFF302
:10113000108C72B62268002AFCD0BFF35F8F5A88E9
:10114000090494B2090C8A4208D00369BFF35F8F87
:1011500000221A608CF31088002010BD8022120239
:1011600014435C80012302698371BFF35F8F002108
:1011700011608CF31088044902788C469340C26851
:10118000012062441360E8E73C200000407870478B
:10119000F0B557464E46DE464546E0B506000F0020
:1011A00085B0EFF3058399468B46002B12D0384962
:1011B00000204B6ABB4206D38A6ADB1B591E8B4157
:1011C000B2424041184305B0F0BCBB46B246A94606
:1011D000A046F0BD2F4B9A46DB68984653461B78D5
:1011E0004046039300F064F84246039B0400043336
:1011F0009B009B580D001B1A39003000001BA941B1
:10120000894510DC0DD020BF214A0020536A5B4580
:10121000D9D3926ADB1B591E8B41B242404118431D
:10122000D1E78342EFD900F04BF832003B00121AAD
:101230008B41002B1ADB00230193174B32000093E4
:1012400050463B00FFF710FF011E0FDD104B5A6A9E
:101250005A451BD39B6AB34216D35046FFF75CFF37
:101260000B4A0020536A5B45ADD3D2E7084A002001
:10127000536A5B45A7D30020926ADB1BB242404110
:101280005A1E934118439EE75A45E6D120BFE4E732
:1012900000400540EC0F0020910E001010B5024AEE
:1012A0000248FFF7AFF810BD50700010041B00207B
:1012B0000300416A0A00986A596A8A42FAD1704763
:1012C000034B596A0A00986A596A9142FAD17047E9
:1012D0000040054070B504000D00174A536A19001C
:1012E000966A536A8B42FAD13000190024184D4196
:1012F000AB4216D813D0104B2A005B6A9D4203D92B
:101300000D494B6A9342FCD3934207D10A4A02E04B
:10131000516A994202D1916AA142F9D370BDA642A5
:10132000E9D9054B5B6A1C005A1CEFD0012201244D
:101330006442E5175242E3E700400540F8B5040077
:1013400006200D0000F078F9002844D0374B3849CA
:10135000E3185A1E93418022120494465B429B0D6F
:10136000344A9B0563441360334A136018000A68CB
:101370009043FBD12D4B314AE31859424B41802118
:101380005B0049000620995200F056F92900C00080
:1013900000F038FB0130C3091ED1402701226262F0
:1013A000A362266BF30722D4E36A254B0620E518D7
:1013B00000232B60266300F03FF93900800000F025
:1013C00021FB7023E26A5A400E3313402B601D4B01
:1013D00023630323A364F8BD1B4A93421ED9002351
:1013E0001A4A1B4F6262A362266BF307DCD5194BC6
:1013F000144AE3181A60656AA36A0620AD01ED1865
:1014000000F01AF9144900F0FDFAAD0201002800BD
:1014100000F0F8FA0021FFF75DFFC5E74006800EF7
:101420009F011A003F180300B9E7C0460080FCBFC7
:1014300008C0004000E0004000F0004058220020BA
:101440002C10000001030000FEFF0000FFFF000061
:10145000C0FF3F00303000004E0E0000F8B5DE4601
:101460004E4657464546E0B58B4605000A9918009A
:10147000160000F0C7FA0A9B6C001F02324B641979
:101480009C46A4006444636881469F4200D967601B
:101490002B1FDBB29846012B30D9C02380229B0141
:1014A000E31812011A60294BAD0059599A460029D8
:1014B0001BD17301E026226853401E408023424620
:1014C0005B01E3181E60012A30D9802380229B0132
:1014D000E31812011A6053464A4667605A51F0BC3D
:1014E000BB46B246A946A046F8BD586900F08AFA44
:1014F000013043001B18033BFDD2DAE75B46012BAA
:10150000CBD1C02303229B01E3181A60023AA368DF
:101510001A42FCD07301E0262268AD0053401E4001
:1015200080230A4A5B019246E3181E605A462168EE
:10153000514003220A401A6001225B469A40A36888
:101540001A42FCD0C1E7C04600800040081B0020C2
:10155000F0B546464F46D646C0B51F00344B440052
:101560009C462418A4006444636888461600FF2B38
:1015700002D880235B006360031FDBB29A46012B15
:1015800030D9C02380229B01E31812011A60294B35
:1015900085005959994600291BD17301E02622681C
:1015A00053401E40802352465B01E3181E60012A0F
:1015B00030D9802380229B01E31812011A60802316
:1015C0005B0063604B465F51E0BCBA46B146A8463B
:1015D000F0BD586900F016FA013043001B18033BB8
:1015E000FDD2DAE74346012BCBD1C02303229B0176
:1015F000E3181A60023AA3681A42FCD07301E0268D
:101600002268850053401E4080230A4A5B019146B0
:10161000E3181E6042462168514003220A401A60C6
:10162000012342469340A2681342FCD0C1E7C04662
:1016300000800040081B0020014B8000C05870470C
:10164000081B0020F8B5040021481E0017000D00FB
:1016500000F0D8F90100380000F0D4F9069B3604F8
:101660001B031E432368002B20DB1A4B1A49E31887
:101670005A1E93418022920194465B421B0B174AEB
:101680001B0363441360164A13601F000A689743E4
:10169000FBD1144B2560E2182123A060136023685E
:1016A000002BFCDA0823E6601360F8BD3F232268B4
:1016B0001340AB42D9D1A3681B051B0D8342D4D183
:1016C000EE22E368D2021340B342CED1EDE7C0462A
:1016D000001BB7000040FDBF08C0004000E0004014
:1016E00000F000400430000010B580241C4BE405DD
:1016F0001C6000281AD001231A4C18431A4BDC61D5
:101700001A4C44401C62596298628021144BC905EE
:101710001960174817490860E021C9041960002AB8
:1017200007D18022144B12061A6010BD0E4BD861EF
:10173000EBE753019B1A9B009A18802312015B046C
:101740009A4209D213000D490B60074B5A60802260
:10175000094BD2051A60E8E7094B1A00F3E7C046C7
:1017600000B00540D3C007B0008005402D3FF84FC2
:10177000FCFF01000820014000A00540681F002078
:10178000FFFFFF008023024A9B000B43D362704798
:1017900000800540002310B50100988A1B8B9847F4
:1017A00010BDC046162310B50100188802331B88EF
:1017B000984710BDF8B54746CE4680B50F1E18D0E5
:1017C00014239946043304000025012698464B460D
:1017D0001888434621681B88984701C4431E9841D6
:1017E00001350640AF42F2D13000C0BCB946B04628
:1017F000F8BD0126F8E7C046002370B504000D00CF
:10180000988A05491B8B984703000020002C01DBB8
:101810000130A0402900984755420000AA23064AFB
:101820001B0113608D235B00D3600449044B1960D6
:101830005368002BFCDA70470040024000B0FA0009
:10184000006002407047C04610B50148FEF7BCFD7D
:101850007470001070B5074D074EB54209D20024D0
:10186000013E761BB60808CD984723000134B342E9
:10187000F9D170BD686F0010A46F0010054B064AC7
:1018800006491A60064A074B1A6010000B68984315
:10189000FBD1704700E00040BFCDFBFE08C0004018
:1018A000FE7F3C0000F00040044BDB6C002B03D1BA
:1018B0008022034BD2021A607047C04600001150CC
:1018C0004C201150044A054B1A60054A1368DB018D
:1018D0008033FBD17047C046FFFFFF0100F000409E
:1018E00008C000404022034B9A675A671A67DA66BD
:1018F0007047C04600F0014010B5FEF707FE10BD6E
:1019000070B5044D044CA968C022200000F08AFB89
:10191000AC6070BD00ED00E000000020002310B5B9
:10192000294C82B0A367FFF779FF0122274B1A6089
:10193000636C012BFCD10322254B1A60224A936B66
:10194000012BFCD1013300930121224A22480433A8
:10195000FFF778FE052301210093204A2048FFF776
:1019600071FE0022022104201E4BFFF7F1FD002230
:10197000012105201C4BFFF7EBFD00220021072071
:101980001A4BFFF7E5FD002200210820174BFFF757
:10199000DFFD8023DB000093002200210920134B90
:1019A000FFF75CFD0022104B00210620FFF7D0FD61
:1019B0000420FFF741FE0E4900F024F8010000204A
:1019C000FFF7E0FE02B010BD008000403CB00040D8
:1019D00030B00040002F685900800240008C8647DC
:1019E00000C00240001BB70040597307006CDC02C6
:1019F00040420F0001480421014B184710100020FD
:101A0000B5170010114A936F9B0813D210665166E8
:101A1000002905D0FFE7FFE7FFE7516F106F704720
:101A200004B5002801D00020C04305F065FA00216C
:101A300004BDC046F0B5146E556E576F166FFFF7B4
:101A4000E5FF1466556657671667F0BD000000D0C5
:101A500094464A4A926F9208624601D228E0C046F4
:101A6000F0B5464E346E756E776F366F00F020F825
:101A70009446424A14665566576716676246F0BD3B
:101A800094463E4A926F9208624601D254E0C046A4
:101A9000F0B53A4E346E756E776F366F00F04CF8D5
:101AA0009446364A14665566576716676246F0BD17
:101AB000002B24DB11D000293EDA00B5C943404297
:101AC00000D1013100F038F8C943404200D1013162
:101AD000DB43524200D1013300BD002AEBD1002884
:101AE00001D1002905D00020C90FC90701D1C04389
:101AF000410800B505F0F8F90022002300BD00B54B
:101B000000290ADBDB43524200D1013300F014F814
:101B1000C943404200D1013100BDC943404200D118
:101B20000131DB43524200D1013300F005F8DB43C1
:101B3000524200D1013300BD002923D1002B18D11E
:101B4000002A0CD0BC460D4F38667A66002100236F
:101B5000FFE7FFE7FFE77A6F386F674670470028B7
:101B600001D00748010000B505F0BEF900220023AE
:101B700000BD02000B00002000217047000000D0D3
:101B8000FFFFFFFF002B00D0BFE0130C28D1002A7D
:101B9000E7D080B4114F39667A66FFE7FFE730B4CB
:101BA000040C7B6F396F1B0423433B667A66FFE7A7
:101BB000FFE7FFE7C04684B27B6F3D6F1B04234302
:101BC0003B667A66FFE7FFE7C04600232C042D0C36
:101BD0007A6F386F00196941B0BC7047000000D0BF
:101BE000F0B594460025140E01D112020835140FE9
:101BF00001D112010435940F01D192000235D40FA6
:101C000001D152000135D40B0134254F7C66254C9F
:101C10003C660E0C93B2FFE7FFE7FFE73C6F6643BD
:101C2000360C7703BE467343DF0B5B04C01AB94121
:101C3000130C7343DB18C91ACE086643360CB6443E
:101C400093B273431F0F1B01C01AB941130C7343A6
:101C50001F0B1B05C01AB941860D8F023E43664318
:101C6000360C092D24DB520A7243801A7703460A88
:101C70006643360C16235B1BDE40DF40BF1964460B
:101C80006643821B7046043506330100D940A840E4
:101C9000C01900D30131A24206D20023F0BD0000DA
:101CA000000000D0FFFFFFFF121B0130F3D3F1E76C
:101CB00009277F1BFE406446A2B27243801A00D2FD
:101CC0000139220C7243130C1204821A99410B0041
:101CD0007046043513370100F940A840801900D33D
:101CE0000131002B02D1A2420AD2F0BD013000D353
:101CF0000131121BFAD2013BF8D1A24200D2F0BD51
:101D0000013000D30131121BF7E7F0B51C0C00D0F5
:101D100080E00CB400251C0A04D11B02160E3343CC
:101D2000120208351C0B04D11B01160F334312019C
:101D300004359C0B04D19B00960F3343920002356F
:101D4000DC0B02D192185B4101351C0097186441ED
:101D50000134464F7C66464C3C660E0CFFE7FFE7BD
:101D6000FFE7C0463C6F6643360C7703BE4697B22A
:101D70007743C01B00D20139C01B00D201399FB28A
:101D80007743C91BC91B170C77437E04FF0B801BCD
:101D9000B941CE086643360C0C2D33DBB644120B2A
:101DA0001F053A431B0B97B27743C01B00D2013982
:101DB0009FB27743C91B170C77433E043F0C801B2F
:101DC000B941860D8F023E43664329277F1BFE40A3
:101DD0000C3D7746AF40BF1930BCA2B2ABB27243E4
:101DE0007343801A9941220C7243130C1204801A17
:101DF000994102000B000137001BA941F9D2781E5E
:101E00000021F0BD0C277F1BFE4077467F0BAF40C3
:101E1000FF19E0E700245D1C07D0144F7D6639668A
:101E2000FFE7FFE7FFE7FFE73C6F95B29EB2654330
:101E30006643401BB141150C1E0C654366433604D6
:101E40002F0C3E432D04401BB141994204D20200A5
:101E50000B0020000021F0BD01D19042F7D3801A81
:101E6000994101349942F2D3F6E70000000000D016
:101E7000FFFFFFFF132370B51D78012D19D014DD6E
:101E80001F48FFF78FFC06001E48FFF78BFC1E4C17
:101E900080223100200000F0C5F8022D2DD01B4813
:101EA000FFF778FC1A4B186070BD1A4B164CA364F0
:101EB000F5E7184B144C23606360A360E360236173
:101EC0006361A361E36123626362A362E3622363EC
:101ED0006363A363E36323646364A364E3642365CC
:101EE0006365A365E36523666366A366E3662367AC
:101EF0006367A367E367A364D1E7064BA364CEE7F8
:101F00005344000053460000181200204C330000D8
:101F100048220020191F001007B5604601880A0AF0
:101F20000230DF2AFAD1C9B2820804D3028840887D
:101F30000004104300E00068014A5050039007BDC0
:101F40001812002051434343C9188C46110C83B228
:101F50004B4310B4040C614392B280B250436243CD
:101F60001C041B0C001910BC59411304120CC0189E
:101F70005141614470470000132310B512481C788A
:101F8000FFF710FC0100012C0AD003DD80220F486E
:101F900000F048F80E48FFF7FDFB0E4B186010BD2F
:101FA0000A4C5422200000F03DF80B4B6365A365FA
:101FB000E36523666366A366E36623676367A367D7
:101FC000E3672362E361E5E753460000181300204E
:101FD0004C33000048220020DD1F001007B560468A
:101FE00001880A0A0230DF2AFAD1C9B2820804D372
:101FF000028840880004104300E00068014A505005
:10200000039007BD1813002001480421014B184715
:1020100020100020B5170010014B1B681847000066
:1020200020100020014B5B681847000020100020A2
:1020300010B5002800D110BD00F034F9FBE7C04610
:1020400010B5094A0300146884B0002C08D001229E
:1020500000910648524203A9A047012004B010BDD8
:1020600000F06AF90020F9E7641F00203120001019
:1020700000BEFDE710B5FFF7FBFFC04670B5FFF7E8
:10208000E9FB074D074EB54209D20024013E761BFD
:10209000B60808CD984723000134B342F9D170BD8A
:1020A000A46F0010B06F0010030010B508001100FD
:1020B0001B68984710BDC046F0B5C64600B5437DC5
:1020C00007000C001600002B46D0002A17DD0B7805
:1020D0000A2B24D000239846012E13D00125290075
:1020E000635C01350A2B26D0B542F8D1464509DCA0
:1020F000A419013C23780D3B5A4253413B7580BCE7
:10210000B846F0BD4346E018A419F11A013C3B68FB
:10211000984723780D3B5A4253413B75EFE7037DC7
:10212000002BD7D102210F483B689847012EDFD002
:1021300001239846D2E7631E5B5C0D2BD4D0884503
:1021400004DA4346C91AE0183B689847022105485B
:102150003B68A8469847C7E70368110020009847E6
:10216000CDE7C046F8710010F0B54546DE464E4654
:102170005746E0B583B091461C0080460D00FFF73E
:102180009FF80023304A12184B41002B02DA01223B
:102190002E4B52422E4908008A4604F0C5FE070025
:1021A0006B1C03D1404604F04FFE0500002C27D0E5
:1021B000284E294B1C68002C18D04B46002B21D1EF
:1021C000264B994602E02469002C0FD02368002B8F
:1021D000F9D04B461B68002B01D09C42F3D1200064
:1021E0002A004146B0472469002CEFD1002F26D1A8
:1021F000280003B0F0BCBB46B246A946A046F0BDDD
:10220000174ED6E7154B99460A239B4602E02469F0
:10221000002CEBD02368002BF9D04B461B68002B19
:1022200001D0A342F3D12A0041462000B0476B46BB
:102230005A462000DA71D91D0122B047E7E750461F
:1022400004F042FED4E7C04640420F00FFFFFF7F8C
:1022500088100020B9200010581B0020601B0020AF
:10226000A92000100A4A1368002B05D10CE01A00BF
:102270001B691032002B07D08342F8D1002902D10C
:1022800018691060196170470029FCD01060FAE7E6
:10229000581B002010B500F03BF900F077FB01203F
:1022A00010BDC046F0B5CE46474680B583B06B46FC
:1022B0000600DD1D2870FFF703F80023194A1218E5
:1022C0004B41002B02DA0122174B524217490800FA
:1022D000884604F029FE164B81461C68002C14D059
:1022E000144F02E02469002C0FD02368002BF9D092
:1022F0003B68002B01D09C42F4D120000122290030
:10230000FFF7DAFE2469002CEFD14B46002B05D1F4
:10231000300003B0C0BCB946B046F0BD404604F042
:10232000D3FDF5E740420F00FFFFFF7F881000203C
:10233000581B0020601B002070B5040004F084FDD1
:1023400001230100050001222000FFF70DFF084BCB
:102350001C68002C06D06368002B05D098472469C0
:10236000002CF8D1280070BD2469002CF3D1F9E7C6
:10237000581B0020F0B5002915DD0E4B0D271A68FB
:102380000D4B0E4CD3185D426B41451820215B006C
:102390001E5F0478A64207D093691942FCD1013030
:1023A0001460A842F5D1F0BD93691942FCD11760C1
:1023B000F2E7C0465C2200200080FCBF58220020CB
:1023C000204B70B504000D1E1E682ADD0020102170
:1023D0001D4B013C1A689369194214D1013093696D
:1023E0001942FCD1136823548542F4D1002E08D041
:1023F00050239363516B183B0B4014498C46624445
:102400001360280070BD002E08D050239363516BD9
:10241000183B0B400D498C46624413600028F1D1F3
:102420000CE0002E0AD05022074B1B689A63596BB0
:10243000183A0A4005498C4663441A60032040421A
:10244000E0E7C046F01A00205C22002034100000B3
:10245000064B10B51B68002B06D00021044A1268F9
:102460009163044A1068984710BDC046F01A0020D6
:102470005C220020F81A00200822034B19688B699F
:102480001A42FCD17047C0465C220020F8B51A4FB2
:102490001A4B3A680500D31858424341184E14337A
:1024A0001C003368002D02D0002B0FD0F8BD002B8C
:1024B000FCD0002120009563FEF748F82000114968
:1024C000FEF7A0F9104B35601D60EFE70E4B2000C2
:1024D00019600C493560FEF771F801212000FEF704
:1024E00035F850223B689A63596B183A0A400749FD
:1024F0008C4663441A60D9E75C2200200080FCBF50
:10250000F01A002051240010F81A002034100000A6
:102510000D4B10B51B780D4B0D4C1B780D4B02214C
:102520001B780D4B00202360FDF70EFF02210120D8
:10253000FDF70AFFE12120684902FEF7FFFE0121B5
:102540000648FFF78FFE10BDC8740010C474001059
:102550005C220020C07400100040034030100020B6
:102560007047C0460022014B1A7070476923022051
:102570004B790020FF2B0BD18B79002B08D1CB7925
:10258000012B05D1082A03D9024B8A7809301A7029
:102590007047C046692302200120704710B5012909
:1025A00013D112495379107909781B020343002093
:1025B000994200D010BD5378012B08D0022BF9D1DD
:1025C000642200210020FFF78FF80120F2E7D37882
:1025D00091781B021943480ADB0501D401204042CF
:1025E0007F238A05D20F1940FFF706F969230220DD
:1025F00000487047E072001070B50500140001201B
:10260000012909D153780020012B05D16379127972
:102610001B021343072B00D070BD21002800024A83
:102620009F3301F055FAF7E7387200100123037069
:1026300000487047187200104B780A781B02134349
:102640008A7810B512041A43CB781B0613439622DE
:10265000D200934200D010BD002201201100404260
:10266000FFF7CAF8024B1860024B19607047C0466A
:10267000F41A0020FC1A002010B5024B1878FDF760
:1026800083FF10BD6A230220154B70B51A68002A1B
:1026900022D0EFF3108172B610680028FCD0BFF38F
:1026A0005F8F00200F4A596010701B68BFF35F8F67
:1026B000186081F31088002400250B4E3078FDF758
:1026C00057FF002804D1002400252900200070BDF8
:1026D0003078FDF759FFF8E7FA240025A400ECE76D
:1026E000881F00206B2302206A23022070B504009B
:1026F00000200E0001F00AFB002834D0002001F079
:102700001BFB00282FD0FEF7DBFD0023174A121811
:102710004B41002B16DB164D280004F005FC002869
:1027200021D0002001F0F2FA00280FD10120002171
:10273000404200F001FD03246442280004F0C4FB81
:10274000200070BD01220B4B5242E4E7002001F053
:10275000F3FA0028EAD021003200002001F0F6FA56
:10276000041EEAD1E7E703246442E9E740420F0090
:1027700050220020FFFFFF7F10B5FEF7A1FD0023D0
:102780000D4A12184B41002B02DA01220B4B524228
:102790000B4C200004F0C8FB00280CD001200021C5
:1027A000404200F0C9FC002001F014FB0028F5D1E4
:1027B000200004F089FB10BD40420F00FFFFFF7FA7
:1027C00050220020F8B5DE46574680B505000C00C3
:1027D000FEF776FD0023364A12184B41002B02DA31
:1027E0000122344B5242344908008A4604F09CFBD3
:1027F000002803D1C0BCBB46B246F8BD002001F0A2
:1028000085FA00284AD00026002C43DD2B4B9B463E
:1028100014E0A919002001F017FB07000120002196
:10282000404200F089FC002001F0D4FAFEF748FD98
:10283000224BF61918605960B4422BDD002001F0DC
:1028400023FBA71B0200B84200DD3A00002AE0D1BA
:1028500001200021404200F06FFC002001F0BAFA94
:10286000002001F053FA002814D0002001F00CFBE6
:102870000028E1D1FEF724FD5B460F001A685B6873
:10288000002184460E4812184B419F4202D8D3D1F2
:102890009445D1D9504604F017FBABE70020002146
:1028A000064B18605960504604F00EFBA2E7C04684
:1028B00040420F00FFFFFF7F502200201012002037
:1028C00020A1070030B52A4C85B00021200004F07B
:1028D0001BFB00281CD1274B1A68002A16D0EFF3E7
:1028E000108172B610680028FCD0BFF35F8F0124FE
:1028F0002148596002781B68D2B20470BFF35F8F21
:102900000020186081F31088002A17D005B030BD70
:1029100001200021404200F00FFC002001F00CFAE1
:102920000500200004F0D0FA002DEFD0134B1B68F7
:10293000002BEBD0124A10689847E7E7FEF728FB18
:102940000400FEF7BDFCFA220023920012184B414E
:10295000002B02DA01220B4B52420121029100218D
:102960000191094920000091FEF716FBCEE7C04611
:1029700050220020881F00206B230220F41A002020
:10298000FC1A0020FFFFFF7F89260010D02310B51E
:102990001B0684B01C68FEF7FBFAFEF7F7FBA042AB
:1029A00002D0002004B010BD294B002100201B786C
:1029B00001F05EFD27480368002B45D00120FEF79B
:1029C00079F8FF23244C254920701840FDF7F6FDC7
:1029D00020780121FDF7BAFD0520FDF7DDFD002877
:1029E00024D1082200211E48FFF716FBFEF7D0FA7B
:1029F0000400FEF765FCFA220023920012184B41F6
:102A0000002B02DA0122174B5242012102910021D0
:102A10000191154920000091FEF7BEFA0028C0DBA5
:102A200012480121FFF71EFC0120BBE70120FDF742
:102A30005BFD0B4B01001800FEF7A0F800220520FB
:102A40000B49FDF7E5FDEBE7FEF77CF8B6E7C0467E
:102A5000CC740010502200206A230220C5280010E8
:102A6000881F0020FFFFFF7F8926001048100020EC
:102A700079260010004870477C73001000487047AA
:102A80002873001010B5040017480378002B20D0DD
:102A9000002C06D1154B16484380063BFF3B0380B4
:102AA00010BD052C1DD8134BA400E058124901237A
:102AB000013804E001330A800231142B0DD0C25CCE
:102AC000002AF7D1C022DBB25B0092000848134312
:102AD000E5E7112100F01AF8DAE7CA2304489B0061
:102AE000DDE70020DCE7C046642202200904000084
:102AF000301B002010730010321B002010B502485C
:102B000000F0D8F810BDC0464022002030B54B1E62
:102B1000012900D1A7E0664A11780D092C00303454
:102B20009F2900D9A2E00470012B00D1BEE00F2143
:102B3000147821400C003034092900D998E0447001
:102B4000022B00D1B2E054782509290030319F2CA6
:102B500000D990E08170032B00D1A7E00F21214024
:102B60000C003034092900D987E0C470042B00D14F
:102B70009CE094782509290030319F2C00D97FE012
:102B80000171052B00D191E00F2121400C00303460
:102B9000092900D976E04471062B00D186E0D4786B
:102BA0002509290030319F2C00D96EE08171072B57
:102BB00000D17BE00F2121400C003034092966D878
:102BC000C471082B00D171E0147925092900303136
:102BD0009F2C5FD80172092B68D00F2121400C0077
:102BE0003034092958D844720A2B5FD0547925090A
:102BF000290030319F2C52D881720B2B56D00F21D7
:102C000021400C00303409294BD8C4720C2B4DD014
:102C100094792509290030319F2C00D9073101739F
:102C20000D2B43D00F2121400C003034092901D94C
:102C300037310C0044730E2B38D0D1790C092200A7
:102C400030329F2900D9073282730F2B2ED00F22EA
:102C50000A4011003731092A01D830321100C173FE
:102C6000102B23D010300023037030BD07345AE7F7
:102C700037310C0063E707316CE737310C0074E73C
:102C800007317DE737310C0085E707318EE73731B3
:102C90000C0095E707319DE737310C00A3E70731BA
:102CA000AAE737310C00C4720C2BB1D1C018DAE797
:102CB0004022002010B588B004000D220021684693
:102CC000FFF7AAF90D22002104A8FFF7A5F94B236D
:102CD0006A466846137004A90D2204F0EDF8152128
:102CE000082220006944FFF79DF908B010BDC046D6
:102CF000F8B500F047F90C23194DFF22AB6705200A
:102D00001849FDF785FC184C402200212000FFF7F0
:102D100083F94027002301262121144A6670278366
:102D2000A260136063545F31618445396354104A73
:102D300010496360E2602787A1620B606362E26210
:102D400004F0B2F880239B052E64EB6490230A4ABA
:102D50000120EA508022094B5202DA64F8BDC046D5
:102D600000001150E1040020641B0020840010507A
:102D7000000110508000105010D0010000201150B0
:102D800010B501210520FDF7E1FB10BD10B50022B3
:102D90000021024800F016F910BDC046841B002037
:102DA000044B1970002904D080219023024A890223
:102DB000D150704765230220002011500B785B062C
:102DC00002D14B78052B00D070478A78014B1A60EE
:102DD000FAE7C04600001150F0B5C646C87800B505
:102DE0008007830F1800012B60D08F780A794B7908
:102DF0007F213940FC091B024E001343334D321929
:102E00005201AA18977001276740577000275B0589
:102E10005B0DD7701383D076B846CA00012C32D030
:102E20002B4FBC468F016244BC46AC446746BA6037
:102E300047461760002932D0264AC90090466246AC
:102E4000414451603F223F339343022837D0224907
:102E500037190A687F01D3180B602049EF19FA600F
:102E60008B422ED836197601AD19EB7E1C499B0694
:102E70004A4013438022120613436A6813600120FC
:102E800080BCB846F0BD174FBC468F016244BC46BB
:102E9000AC446746BA6247461760002908D1002350
:102EA00064012C196360104BE360E8E70020E7E75A
:102EB0000B4AC9009046624641445162C2E75B003A
:102EC000C5E7FEF7C1FCFA68CCE7C046641B0020EA
:102ED00084001050040010506C1F0020FF0F105091
:102EE00000001050800010500001105010B503F089
:102EF000DBFF10BD10B57F200C0020404000E4092E
:102F0000110000191A00034B4001C01800F05AF8D4
:102F1000012010BD641B00207F23180000B508406D
:102F200083B00B4204D14B424B41084A01339366B4
:102F30008022C9094000064B401840010021C018FA
:102F4000120104F009F803B000BDC0460020115082
:102F5000641B00207F22130010B50B400A4200D1F1
:102F600010BDC9095B005B1804485B01C018002351
:102F700000220349C37003F0EFFFF1E7641B002058
:102F8000FFF7FFFF80220A4B520410B51A60094B6D
:102F900009491A6010000B689843FBD18022002178
:102FA00052010648FFF738F80922054B5A6710BD51
:102FB00000E0004000F0004008C000400000105059
:102FC00000001150002310B5C38201338282837642
:102FD0000161040003F080FF002804D080219023C9
:102FE000074A8902D150200003F0A6FF002802D032
:102FF0000123237710BD200003F0A6FFFAE7C046A7
:10300000002011507047C0467047C04600207047EE
:10301000002070477047C0467047C0467047C046A2
:103020007047C046024B5878431E9841C0B2704763
:1030300008160020024B18784007C00F7047C046A2
:1030400008160020F0B5D6464F464646C0B52F4B71
:1030500007009A461B780E00FF2B50D1002941D063
:10306000002154222A48FEF7D7FF0022294C2A4B80
:1030700020001A70FDF766FD284B1C60284C2000CC
:10308000143CFDF76DFD200001F0FAFD254B264DA7
:103090001C60264B002B04D02800FFF7C7FA244BF6
:1030A00018602449002489462149002388462A784B
:1030B00010E043461B6862019B18002B12D05B682E
:1030C000002B0FD098472A780134E4B2511C23001A
:1030D000A14209DBA242ECD89B1A5B014B445B681E
:1030E000002BEFD100200BE05346310038001F7059
:1030F000FFF7FEFD0028F5D03800FFF741FE012064
:10310000E0BCBA46B146A846F0BDC0467C100020DF
:103110000816002000160020662302205C160020FE
:103120007410002060160020642302202D26001059
:103130005814002038740010F0B5DE4657464E464D
:103140004546E0B5C84B91B002931B78FF2B00D1E8
:103150003EE1C64BC64E9B465F46C64B0DAC019347
:10316000C54B009335686A69EFF3108172B6136836
:10317000002BFCD0BFF35F8FA9612800210001F074
:10318000AFFB6A69AB69BFF35F8F0021116083F306
:103190001088002800D11BE16378082BE2D89B003F
:1031A000FB589F466368002BDCD0A0689847D9E79E
:1031B0007F222179AF4D0A405300EB189846C80989
:1031C000804440460123303005799D4305710579DF
:1031D00003339D430571002A00D100E14346A74A0D
:1031E0001B7D1278934200D3EFE0A54A5B0115687E
:1031F000ED18002D00D1EBE0A36862792078AD696D
:10320000A847AFE79F4A1378002B00D1E0E013787E
:10321000013BDBB213701378002BA3D10122954D33
:1032200001212B78042013432B703423EA5C8A435A
:10323000EA54EA5C8243EA540133EA5C8A43EA5482
:10324000EA5C8243EA54237800209B4600F09EFC0F
:10325000602223791A40602A00D1EFE0402A00D191
:10326000F5E0DB06DB0E012B00D113E1022B00D1D0
:10327000C7E0002B00D0E1E0202A00D11CE2002AA8
:1032800000D0DBE06379092B00D9D7E07E4A9B00B0
:10329000D3589F46774D2B78DB0700D462E7FFF7C2
:1032A000BFFE5FE7019BDB78DB0700D45AE760686D
:1032B000FFF7AAFE56E76F4D2B78DB0700D451E7E6
:1032C00028780007C00FFFF7A9FE4BE723786A496B
:1032D00099468B46694B6A4998468A4639001A785E
:1032E00047460023B04600254E46894610E0534627
:1032F0001B686A019B18002B00D176E0DB68300068
:1033000098473A780135EDB2511C2B008D4244DCD0
:103310009542ECD39B1A5B015B44EFE72378584955
:103320009946564B8A4698463100BB464E461A7817
:1033300000250023474689460FE053461B686A0173
:103340009B18002B55D0DB68300098473A78013540
:10335000EDB2511C2B008D4207DC9542EDD39B1A38
:10336000009A5B0194466344EDE7019D54220021DD
:103370002800FEF751FE1022FF214448FEF74CFEC4
:1033800028002022FF2114304E465F46FEF744FEFF
:1033900000F0F2FBFFF740FEE4E6364D5422002138
:1033A0002800FEF739FE1022FF21281DFEF734FE0B
:1033B00028002022FF21143046464F46FEF72CFEFF
:1033C00000F0DAFB2379AB70CCE6501C984213DA9C
:1033D00011B0F0BCBB46B246A946A046F0BDA368FA
:1033E0006279207800F0E6FBBCE646464F46214D68
:1033F000E6E74E465F46CBE71F4D9B1A5B015D1922
:10340000FAE67023217A0B4218D1C80982460F339D
:103410000B405B0098461948EB1853441B7D00781D
:103420009946834266D216485B01006881469944FA
:10343000002A00D15FE14B46002B68D120780021A3
:10344000FFF76AFD80212078FFF766FD8AE61048C5
:1034500000F09CFB012158460EAAFFF7CDF800288A
:1034600000D07FE6EAE7C0467C1000209073001091
:103470006016002008160020387400106423022013
:103480005814002066230220B47300100C1600208C
:10349000F9250010237A0F2BD0D8CF4AEB181B79CF
:1034A0001578AB423ED3691C9942C7DB5D1BCB4B01
:1034B0006D01ED18686900F069FB012158466B69E0
:1034C0000EAA9847002800D04CE660221500237908
:1034D0001D401A42B2D163790A3B012BAED800F0ED
:1034E00055FB63790A2B00D199E158460EA900F0EB
:1034F000D9FA37E6431C4B4500DAF7E04B461B1A76
:103500005B019946B5488144002A00D1F3E04B465F
:10351000586900F03BFB4B46012158465B690EAAF7
:1035200098479CE7AE4A5B011568ED18002DC1D1A4
:1035300084E7A37999466B789945D6D06B78002BB0
:1035400000D033E14B466B70002B00D12BE1484695
:103550000138C0B2FFF792FA002800D17EE143782B
:103560000793022B00D079E10122C179B1468B117A
:10357000491113400A40302112015B0113432A789C
:10358000A8468A4313432B7009239A468244564621
:10359000BA46C37882781B021343C31805938E4B37
:1035A00004938E4B08938E4B09938E4B0A93059B85
:1035B000B34200D855E1737801220B2B03D1337845
:1035C000F278F6187378042B00D044E1059B0027AD
:1035D0009B1B9BB20693049B0B921D7800230393C5
:1035E0001BE0099A7B011568ED18002D00D132E12E
:1035F000310058462B69069A98478446082803D913
:10360000069A824200D313E1049B01371D78FFB272
:103610006B1C03979F4200DD1DE1BD42E1D8039B77
:103620005D1B089B6D019C466544E1E76B780CAA25
:1036300002321370584601230EA900F049FA91E5B1
:10364000E3881A0AD8B20F2A00D9F7E66649930030
:10365000CB589F460EA800F09FFA5846A179FFF775
:1036600095FB02222B7813432B707BE5E388012B1B
:1036700000D0E3E608222B78584693430EA92B701E
:1036800000F010FA6EE5022029780CAB9A1C8B062C
:103690008908DB0F01400B431380584602230EA913
:1036A00000F016FA5EE5E388012B00D0C6E608229A
:1036B0002B7813432B7018E7237A0F2B00D9BDE624
:1036C000EB181D79444B1B789D4228D2444B6D0169
:1036D0001B685D19002D00D1B0E6686900F056FA4C
:1036E000012158466B690EAA9847B8E6002A00D017
:1036F000A4E60023994662790220130003928343D3
:10370000012B15D0002A00D098E62B0043445344E7
:1037100030331B790CAA9B07DB0F0232BCE75A1C23
:10372000AA4200DA8AE6ED1A2C4B6D01ED18D4E7B7
:10373000E388002B12D1029B1878039B012B23D026
:10374000FFF7EAFB43460221EB18534430331A7962
:103750000A4301211A711A790A431A714B46002B48
:1037600000D1FFE4586900F011FA4B4601215B6972
:103770000EAA58469847002000F008FA3523EB5C63
:10378000DB0700D5EEE4B0E6FFF7E4FB4346022199
:10379000EB18534430331A798A431A711A79039912
:1037A0008A431A71DAE7FFF737FC9EE60021584694
:1037B000FFF7F6FA5846FFF799FBAB7807490393F2
:1037C0000491054B064998461A7805910023290073
:1037D0001D008A461BE0C046642302203874001096
:1037E000581400201C160020DC730010059B6A0191
:1037F0001B689B18002B4DD0DB6858469847434602
:103800001A780135EDB2511C2B008D422EDC954209
:10381000ECD39B1A049A5B0194466344ECE70CAB2F
:103820009A1C584601230EA9157000F051F999E42D
:103830000B9A012A4FD0002A3CD00023B07804E034
:103840000133DBB20F71934234D2C118C9B2414483
:103850000D79FF2DF4D04E464546574600236B7038
:10386000ECE54E465746FFF7D5FB3EE6554654225B
:1038700000212800FEF7D0FB1022FF21281DFEF7B3
:10388000CBFB28002022FF211430FEF7C5FB039B51
:10389000AB7057E65546FAE7FEF7AAFE021E00D1C6
:1038A000CCE5D37891781B020B4358460EA900F063
:1038B0000FF9D4E565463B002A0031000A9800F074
:1038C0007FFEAC46049B039A1B7866440133934207
:1038D00000DB6CE6BFE7174B29699942ADD1079A27
:1038E000ABE7FFF793FB021E00D1A7E5584613781C
:1038F0000EA900F0EDF8B2E52189FFF7C3F8021E2A
:10390000F4D19BE5022A0FD0FFF782FB021EC8D13B
:1039100094E5FFF7AFF8021E00D18FE51223584659
:103920000EA900F0D5F89AE5FFF7A8F8021EB8D165
:1039300084E5C046893F0010F8B557464E46DE463E
:1039400045460C00E0B516001F00002A3CD070234D
:1039500098461E4B00259B461D4B9A461AE05B4637
:103960001B78200099465346997800F0EBFD00281B
:103970001CD021004846FFF72FFA002816D0A37864
:10398000DA09012A19D00A9A013513702378E4184C
:10399000B54219DA6378052B08D1E3789B079B0FB2
:1039A000BB4203D14246A3781A42D8D00020F0BCD3
:1039B000BB46B246A946A046F8BD0B9A0135137026
:1039C0002378E418B542E5DB0120F0E77C10002005
:1039D00008160020702270B58B780C001A4201D0B6
:1039E000002070BD064B20001D78064B997800F032
:1039F000A9FD0028F4D021002800FFF7EDF9F0E739
:103A00007C100020081600200B007F2010B5184005
:103A1000DB0934334000044AC018044B1168C01855
:103A200000F04CFD10BDC0465C16002008160020BA
:103A30000B007F2010B51840DB0934334000044AE6
:103A4000C018044B1168C01800F060FD10BDC046DE
:103A50005C1600200816002070B57F240F480C402B
:103A600064000419CD09641930342079C00701D5E8
:103A7000002070BD0126257909483543007825715D
:103A8000FFF738FA0028F4D10122237993432371F8
:103A90002379033293432371EAE7C04608160020D6
:103AA0007C10002070B5094C0600082220000D0093
:103AB000FEF7B8FA00238021E360A3602B78300082
:103AC000994300220023FFF7C7FF70BDE8150020CF
:103AD000F8B5CE4647469046254E80B58146082229
:103AE00030000D001F00FEF79DFA4346B36000232F
:103AF000F381EC79AB7924021C43231CBC4200D92E
:103B00003B1C9FB2B381002C0DD0002F17D0424632
:103B1000002A2BD0402F1BD89FB233787F2B1CD884
:103B20000021144A0FE080212B7800229943484657
:103B30000023FFF791FFC0BCB946B046F8BD7F2314
:103B40000022317899433B004846FFF785FFF2E7B2
:103B500040239FB233787F2BE2D9064C3A0041468E
:103B60002000FEF75FFA80212200ECE70020E2E768
:103B7000E8150020A815002010B5142200210248E5
:103B8000FEF74AFA10BDC046E8150020014B186147
:103B90007047C046E815002010B5054C010008220A
:103BA0002000FEF73FFA0023A360E36010BDC0468B
:103BB000E815002070B5384C1D0023780600DA099E
:103BC000C9098A4210D00020002D00D070BD21000C
:103BD0003000FFF7F3F82369002B03D02200032104
:103BE000300098470120F1E77F2B06D8A068002815
:103BF00034D02A002949FEF715FAE289A168521942
:103C0000E38892B24919E281A160934214D03F2D1A
:103C100012D9A389981A051C80B240282AD8207886
:103C2000ADB27F2828D800219A4232D01B4A2B00FF
:103C30003000FFF711FFC9E72369002B05D02200F0
:103C400002213000984700280AD0802123780022E2
:103C5000994330000023FFF7FFFEB7E70020B5E7E8
:103C600000213000FFF758F930008021FFF754F9A8
:103C70000120ABE74025D2E79A4207D0074C2A0043
:103C80002000FEF7CFF980212200D0E7802100221A
:103C9000CDE70022CBE7C046E8150020A81500209C
:103CA00070B50400FFF7BEF9002800D170BDFFF722
:103CB000C1F90028FAD1C8236343124DEE18F178F8
:103CC0000029F3D010335D19280000F0F3FD3F28E0
:103CD000ECD90020F178FFF797FE0028E6D0280005
:103CE00000F0E8FDF1783F2807D9074BE201D21830
:103CF00000204023FFF7B0FED8E70020FFF798FE32
:103D0000D4E7C046E01400205C14002010B5040085
:103D1000FFF788F9002801D1002010BDFFF78AF9CC
:103D20000028F9D1C8226243024B01309B181B794D
:103D30001840F2E7E0140020C82310B543430248BE
:103D4000181800F099FD10BDF0140020F8B5C82433
:103D5000802344431C4F103405003C195B029A42F7
:103D600000D31A4A200092B200F008FE0600FFF7C6
:103D700059F9002801D13000F8BDFFF75BF90028A0
:103D8000F9D1C8236B43FF18FB78002BF3D0200038
:103D900000F090FD3F28EED90020F978FFF734FEBF
:103DA0000028E8D0200000F085FDF9783F2807D9E9
:103DB000074BEA01D21800204023FFF74DFEDAE757
:103DC0000020FFF735FED6E7E0140020FFFF0000DB
:103DD0005C140020F8B50400FFF724F9002801D195
:103DE0000020F8BDFFF726F90028F9D1C825654362
:103DF0002E00134F2436F619300000F03DFD002848
:103E0000EED07F190020B978FFF7FEFD0028E7D03B
:103E10000C4DE401651929004022300000F0AEFD90
:103E2000B978041E08D003002A000020FFF714FE12
:103E30000028D5D02000D4E70020FFF7F9FDCFE718
:103E4000E01400209C14002070B5C82444430C4B9F
:103E50000500E41880235B029A4200D3094A20003F
:103E600092B200F051FE0600200000F005FD3F2850
:103E700001D8300070BD2800FFF7ACFFF9E7C0465D
:103E800004150020FFFF0000C82310B5434302487B
:103E9000181800F00FFD10BD04150020F0B5002526
:103EA000184C83B0C82200212000FEF7B5F8164B4D
:103EB00021001D70FF236371E1235B02A3602000DA
:103EC00008234022A37338310095073B103000F0DF
:103ED0009DFC27000123210020002600402278318C
:103EE0000093B837243000F091FCC0363800FCF75E
:103EF00029FE3000FCF726FEE56127622663656334
:103F000003B0F0BDE0140020DC1400200A4A116B5D
:103F1000136A00290CD0002B07D00023D361536310
:103F20001363002313620120704753631363FAE79E
:103F3000002BF8D0D161F4E7E014002070B50F4CED
:103F4000052200212000FEF767F80D4D2B78DA07D7
:103F500007D50C4C9B070CD50121200000F0B0FECA
:103F600070BD2000103000F08BFE2B78054C9B07B5
:103F7000F2D4200000F084FEEEE7C046E0140020FA
:103F8000DC14002004150020F0B54B79060083B046
:103F9000022B02D18B79022B03D00025280003B01D
:103FA000F0BD204FBB78002BF7D18B7809253B70F3
:103FB0000C780C196378242B07D00CE02378E418D4
:103FC0005D196378ADB2242B05D19542F6D9002056
:103FD000FFF766FEE2E71A00052B15D0042AF6D19A
:103FE00063790A2BF3D1104B2778019301330093A7
:103FF00030000223E119023AFFF79EFC0028CCD0E2
:104000000E35ED19ADB2E2E721003000FFF7E2FC1A
:104010000028C2D0A3787B7023785D19E4186278F9
:10402000ADB2DBE7E0140020E2140020F8B5602315
:1040300014001278050013400020202B07D1304ACD
:104040006379277916781B023B439E4200D0F8BD66
:104050006378222B1AD007D8202B34D0212BF6D10D
:1040600001293ED00120F2E7232BF0D1012940D0D5
:104070000329F7D1234B002BF4D0E178A378090270
:104080000020194300E000BF0120E0E7012930D003
:104090000329E7D101252E00A378E4780239240210
:1040A0001C431471264024321000714000F008FEB9
:1040B000154B002BD6D06208002031002A4000E0CA
:1040C00000BF0120C3E701290BD00329CAD10F4B40
:1040D000002BC7D0083200201100FEF7ADFA0120F6
:1040E000B5E7072321002800094AFFF7F1FC01206A
:1040F000ADE721002800FFF7D5FC0120A7E7C04667
:10410000E01400200000000000000000392600102C
:10411000E8140020F0B54F464646D646C0B5364DA9
:104120008046EA780C001F008A423CD0AB788B4274
:1041300010D00020E0BCBA46B146A846F0BD2F4BD7
:10414000002B04D02E4800F0ADFB002851D00020F9
:10415000FFF7A6FDAB78A34201D00120EAE7294B87
:10416000002B02D0002000E000BF0020FFF732FE4D
:104170000028F2D1244C200000F07EFB0028ECD176
:10418000002FEAD0BF06E8D1243C4046A178FFF7D3
:104190003BFC0028E1D0002300224046A178FFF735
:1041A0005BFC0120C6E79AB210239A46174EAA4438
:1041B0003100504600F0A8FC154B002BBFD06B79A6
:1041C000FF2BBCD0002FBAD0F219914603E0013684
:1041D0004E45B4D06B7932789A42F8D1504600F00F
:1041E00061FB0028F3D15346103B597900E000BF32
:1041F000EDE700E000BFAAE7E014002000000000A7
:10420000F014002000000000041500205C140020C1
:10421000000000009322F0B5134C85B0002120006F
:104220009200FDF7F9FE23002000802640270F4D65
:104230004D337600FF33293002950093002200238E
:10424000002103970196FF3000F0D4F94035201D7E
:10425000283400230122002103970295019600943F
:1042600000F0C8F905B0F0BDA41700202417002005
:1042700010B5054C200000F0F3F920002538FF3878
:1042800000F0EEF9012010BDCC18002070B5084CEC
:10429000002520003130FF30257000F0F1FC2000B7
:1042A0000C3000F0EDFC2A23FF33E554657170BD3E
:1042B000A4170020F8B557464546DE464E46E0B501
:1042C0004B7980460F00FF2B5BD1404B99462A2348
:1042D0004946FF33CB5C002B53D14E79002E50D191
:1042E000BB783C780B703B793C19002B46D0982367
:1042F0005B004B449A460C234B449B46A51803E0B5
:10430000AC423BD22378E4186378052BF8D1AC4259
:1043100034D221004046FFF75DFB002831D0A3785E
:104320000136F6B2DB09012B32D0504600F0A8FC72
:104330002A234946A278FF33CA54637922791B02A3
:104340001343234A5B0594465B0D942163445A4210
:1043500053414A4602204900525C5B0082431343AA
:104360004A46535451464046083900F0E3F90028C4
:1043700007D02378E4183B79B342C5D8E01B80B25C
:1043800000E00020F0BCBB46B246A946A046F8BDFE
:10439000584600F075FC5A46A3780C3A537163797D
:1043A00021791B020B430A495B058C465B0D634474
:1043B00059424B41022011795B0081430B4359461E
:1043C00000200839137100F081F9D2E7A41700200A
:1043D00000FEFFFFF8B52A2506001F48FF35455DA2
:1043E0001F008D4215D043798B4201D00020F8BDCB
:1043F0001A4B002B04D039040020090C00E000BF48
:10440000174C3000210000F061F900281DD0012078
:10441000EDE79A235B00C35A002B0DD1114B002B03
:1044200004D000201049BAB200E000BF30000F49AC
:1044300000F080F90120DAE796235B00C1583130A3
:10444000BAB2FF3000F060FBE8E73A00210030002C
:1044500000F008F90120CAE7A417002000000000BE
:10446000A81700200000000024170020CC1800200E
:1044700000B5030083B0002910D00020012B07D81D
:104480000A78002A04D00C48C2540120012A01D025
:1044900003B000BD1800FEF7D5FDF9E701236A4619
:1044A000002001A99380FEF7CDFD0028F0D0012265
:1044B000014B1A70ECE7C046FC150020037870B57C
:1044C000DB0704000E00DD0F002B17D103785B071C
:1044D00001D5280070BD01213000494202F01CFDC9
:1044E0002378DB07DD0F002B0AD123785B0708D484
:1044F0000422237801251343237002E00025E8E716
:104500000025300002F0E0FCE3E7C04670B50C0087
:10451000012106004942200002F0FEFC33785B07CF
:10452000DD0F002B04DB200002F0CEFC280070BD64
:104530003378DB0704D40422337893433370F2E7F3
:104540000025F0E7437902791B021343C2785B052B
:1045500092075B0D920F022A1DD0032A0CD0002077
:10456000012A08D102394A425141124A9446614413
:1045700099424041C0B2704702394A1E91410E4AE9
:10458000494211408022D200944600206144994261
:104590004041C0B2EFE7022905D0002040229A42F4
:1045A0004041C0B2E7E7054A981843425841C0B2BB
:1045B000E1E7C046FF03000040FCFFFF00FEFFFFF5
:1045C0008A1870B5914207D27F264C78052C04D00A
:1045D0000C7809198A42F8D870BD34008D782C40C7
:1045E00064000419ED0963550C7809198A42ECD866
:1045F000F2E7C046F0B5C64600B582B0150008AA7D
:1046000040CA040017886A46928D012090460A002D
:104610002178024081432000114321703A00009329
:1046200031000123083000F0F1F8002E01D0002FF6
:1046300008D10A9B012063604346638002B080BCBE
:10464000B846F0BD26001C363000FCF77BFA00238C
:10465000002D01D0330000266361A661E9E7C04662
:1046600001207047F8B502240B7807001C40634214
:104670005C41144B64421C40134B08009C460830BC
:104680000D001600644400F0F7F8002807D1002E52
:1046900005D0344203D101242B781C4201D00020E4
:1046A000F8BD38006978FFF7AFF90028F7D02B780C
:1046B0001C42F4D10023002238006978FFF7CCF9BE
:1046C000EEE7C04640FEFFFFFF010000F8B50D0019
:1046D0000835060028000C0000F0CEF8002803D0B2
:1046E000012723781F4201D00020F8BD30006178F7
:1046F000FFF78AF90028F7D028006288616800F087
:104700003DF9237805001F4000280BD0002FEBD186
:104710000300626830006178FFF79EF90028E3D05B
:104720002800E2E7002FDFD130006178FFF780F941
:10473000DAE7C046F8B5CE46474680B58A89060016
:104740000C000B78002A07D101251D4240D0002023
:10475000C0BCB946B046F8BD9B0733D42A4B4025B0
:10476000994627000837380000F0A4F88542EED8B3
:104770000122237890461A42E9D130006178FFF790
:1047800043F90028E3D0380000F094F8424623783B
:104790001A40854231D8002AD9D14A46638802405E
:1047A0001D1C934200D9151CADB200226178002D6A
:1047B00000D062682B003000FFF74EF90028C6D009
:1047C0002800C5E7FE2380251B029946AD00C8E7F7
:1047D0004978FFF719F90028B9D023781D42B6D1DE
:1047E000638800226178002B00D062683000FFF7F8
:1047F00033F90028ABD06088AAE7002AA7D130009F
:104800006178FFF715F9A2E7C0FF0000F0B5C646D2
:1048100000B504006846057E8020884617001E000B
:104820000002824226D8E068002803D001214942D4
:1048300002F072FB2069002803D00121494202F0F6
:104840006BFB4346236073045B0CED031D430023A5
:10485000E0686381A780E5802381002801D002F011
:1048600033FB2069002801D002F02EFB012080BC20
:10487000B846F0BD0020FAE710B504894189828866
:10488000A3B288B28C4207D31B1A9BB2101C9A4267
:1048900000D9181C80B210BD5100091A5B189BB2D8
:1048A000F4E7C04603894089181A43425841C0B210
:1048B0007047C04610B5048941898288A3B288B286
:1048C0008C4207D31B1A9BB200209A4201D9D21AFC
:1048D00090B210BD5100091A5B189BB2F4E7C046B4
:1048E00070B5040000690E00002803D00121494280
:1048F00002F012FB25896089A288A9B283B28542A1
:1049000032D3CD1AADB2002D28D0AA4208D291429E
:104910002FD3891A8BB263819A4203D89B1A9BB218
:104920009A42FBD9E28821685204520C534330006A
:10493000C918FDF777FB63890125591C89B2A28844
:104940008B420DD900215200891A89B220696181F8
:10495000002801D002F0B8FA280070BD618989B240
:1049600052009142F2DBEFE75500ED1A4D19ADB25E
:10497000C9E789188BB26381CEE7C046F0B54646D9
:104980004F46D646C0B506000069894690460028C5
:1049900003D00121494202F0BFFA31897289B588FA
:1049A0008BB294B2914254D31F1BBFB2002F4AD096
:1049B000BD4205D2AB4251D25B199CB22F0074812B
:1049C0004346B8453DD89FB2A54203D8641BA4B264
:1049D000A542FBD9F28831685204520C90466243DA
:1049E0002B1B9BB2891842469F4225D953439BB249
:1049F0001A0048469A46FDF715FB434648467D1B7C
:104A000064195C4331685044A2B2FDF70BFB718915
:104A1000B588CB199BB26A00994216D99B1A9BB2F2
:104A200030697381002801D002F04EFA3800E0BCF2
:104A3000BA46B146A846F0BD48467A43FDF7F2FAB9
:104A4000E5E73B1CBFE773899BB26A009342E7DB53
:104A5000E4E76F003F1BDF19BFB2A7E75B1B9CB207
:104A6000ACE7C046F8B50400C0680E00002803D0CB
:104A70000121494202F050FA258920896189A288E2
:104A8000ADB283B28FB2884229D3DB1B9BB29A426C
:104A900009D8E779FF0906D1E068002801D002F0C3
:104AA00013FA3800F8BD2B0095421DD39B1A9BB218
:104AB0009342FBD2E28820685204520C53433100E7
:104AC000C018FDF7AFFA6B1C9BB2A2889D4217D9A4
:104AD000002352009B1A9BB201272381DCE751007F
:104AE000C91B5B189BB2D2E7E28820685204520CC3
:104AF00053433100C018FDF795FA0135A288ABB2D7
:104B000052009342E8DBE5E7F0B54E465746DE46F5
:104B10004546E0B589460600170083B0002A67D0F5
:104B2000C068002803D00121494202F0F5F9338919
:104B3000F2799BB298467389B5889BB2D20940D16D
:104B400098455ED26A00D31A43449BB2AB425DD211
:104B5000EB1A1A1C9BB2BB4200D93A1C97B27B1BC2
:104B60009BB20193F3885B045B0C9A464346DB19C6
:104B70009BB29B464446A84503D3641BA4B2AC42F7
:104B8000FBD25346634330682D1BADB2C018BD4203
:104B90004BD3524649467A43FDF744FAB3885B004B
:104BA000D84501D89B4503DB5A46D31A9BB29B4696
:104BB0005B463D003381F06800281AD002F084F98A
:104BC00017E0F2885204520C9246AF4220D2984528
:104BD0004DD34246D21A92B26900781B80B2D219E4
:104BE00001908A4233DA4346FB189BB29B46C1E7E9
:104BF0000025280003B0F0BCBB46B246A946A0463B
:104C0000F0BD4246D31A9BB2AB42A1D30025D2E7F6
:104C1000002DD0D07F1B574398465A19002392B2DB
:104C2000B94493462F000193A4E753465D43ADB2C8
:104C30002A004946FDF7F6F9019B2900E218534680
:104C40005A43306892B24944FDF7ECF9A6E75A1985
:104C500092B29346D21B92B2904693420CD94346ED
:104C6000591A8BB29846FB189BB29B4682E76900A3
:104C7000CA1A424492B2B0E7914200DD7AE7EEE709
:104C800010B50400C068002803D00121494202F099
:104C900043F92069002803D00121494202F03CF980
:104CA0000023E06863812381002801D002F00CF921
:104CB0002069002801D002F007F9012010BDC0468C
:104CC00070B50400C0680D00002803D001214942DE
:104CD00002F022F92069002803D00121494202F0A4
:104CE0001BF97F21E379ED011940E0682943E17167
:104CF000002801D002F0E8F82069002801D002F075
:104D0000E3F8012070BDC046F0B5C646431E00B5AD
:104D10000A3315D8072304001A000834224023421E
:104D200000D171E01300093BA34209D31030841A6B
:104D300001F0ACFA394A27001568002D28D10EE0A1
:104D400001F0A4FA354A1368002B06D0002501F0C3
:104D5000A5FA280080BCB846F0BD00270024072132
:104D60002F4B194247D180251900AD0200202D4E4E
:104D70004D19706031600726083DB54315602A4A19
:104D8000EB1A1360294A6860286013604B600D605D
:104D9000002FDBDD254F3E68A642D7D321480368AC
:104DA00004E01A68002A04D0180013005968A142D0
:104DB000F7D3AB42CAD01D001A680835904602608E
:104DC0000A1B102A05D919194A6042460A60016077
:104DD0002100154A761A10683E60864200D216609D
:104DE000802212060A435A6000221A60104A136891
:104DF00001331360ABE7D81D8843802189025D1819
:104E00002D1A03000100B1E701F040FA034A270020
:104E10001568002DA3D0002CBCDA97E7B01F002046
:104E20006022002024230220F4220220E822022013
:104E30000023022070B5002804D00838436804001D
:104E4000002B00DB70BD0268002AFBD15B005B0811
:104E50004360050001F01AFA184A616813685B188C
:104E60001360174B1A001B689C42FBD85068161839
:104E7000B4420DD0601883421AD02360AA4200D0F9
:104E80001560104A13680133136001F007FAD9E77F
:104E90000918501851608342F3D10B48150000687F
:104EA0009842EED058681B68411869602B60E5E7AE
:104EB000054800688342F5D1DFE7C046E8220220BA
:104EC0002423022004230220B01F00207047C04684
:104ED0000B4A13681868203080F30988022080F399
:104EE0001488BFF36F8F3FBCAE4608BC04BC62B6EB
:104EF0001847C046C046C046C046C046C046C04629
:104F0000A41F0020000000000000000000000000BE
:104F1000EFF30980164B1A6820381060F0C0444641
:104F20004D4656465F46F0C00D221207146E556E70
:104F3000566F176F3038F0C008B572B601F0C8FA76
:104F400062B60CBC116808681030F0C8A046A946CB
:104F5000B246BB4680F309880D2212073038F0C8EC
:104F60001466556656671767F0C81847C046C046AE
:104F7000A41F0020D02300B51B061A6D83B0D207F2
:104F800004D501219A6D1A6D1142FBD1D023FF2265
:104F90001B061A650023114A01931168EFF3108C68
:104FA00072B60B68002BFCD0BFF35F8F00230C4858
:104FB000126801680360BFF35F8F13608CF3108881
:104FC000084B01AA186800F0D9FA019B002B03D006
:104FD0008022054B52051A6003B000BDA01F0020BF
:104FE0007C220220E422022004ED00E010B5FBF751
:104FF00003FAC04610B58024031F64041C60043B00
:1050000019600349043B1960143B40381A6010BD15
:10501000ED4F00108022044B52051A60BFF34F8FF2
:10502000BFF36F8F7047C04604ED00E072B6044ACC
:10503000136801331360BFF34F8FBFF36F8F704757
:1050400078220220094A1368013B1360002B0CD11F
:1050500007490A68002A07D00B6006490968BFF3B0
:105060005F8F136081F3108862B670477822022048
:105070003C22002060220220EFF3108072B67047BD
:1050800080F310887047C04610B5FFF7F5FF0400A5
:1050900001F00CFA002803D08022034B52051A605D
:1050A0002000FFF7EDFF10BD04ED00E0002310B578
:1050B000084A094C052023601360FCF7BDFAFA2169
:1050C0008900FCF79FFC054B01381860072323601B
:1050D00010BDC04618E000E010E000E014E000E081
:1050E000FF221F4B1204196810B50A431A60FF22F1
:1050F000196812060A431A601A490E2001F080FE50
:1051000019490F2001F07CFE18490B2001F078FEB0
:10511000FFF7CCFF0022164B1A60D0231B06154A5E
:105120001C681470FF221A651A6DD20704D501217C
:105130009A6D1A6D1142FBD10F34FF212000FBF74D
:105140004BFC20000C49FBF739FA01212000FBF74A
:10515000FDF9FFF7BDFE01F0BBF9FBF74DF9C046C5
:1051600020ED00E0114F001089500010CD4E0010CE
:10517000782202207D100020754F0010D02310B53A
:105180001B061868074B1B78834200D010BDEFF355
:105190000583002B02D05B00C018F7E701F0D0FBBD
:1051A000F4E7C0467D1000200A002A4903688C46B7
:1051B000022130B563449B10FF319940264B83B0E8
:1051C0001C78D0231B061B68090A9C421FD040BFD5
:1051D000224D03682C68A34234D02368002BFCD0F6
:1051E000BFF35F8F1E4C23680B4323602B68BFF314
:1051F0005F8F002119600368D020002100064165FF
:10520000BFF35F8F196082F3108803B030BD40BFD9
:105210000368BFF35F8F00241C6082F31088EFF3F4
:105220000583104ADBB21068002B10D001AA01944C
:1052300000F0A4F9019B002BE7D080220A4B520515
:105240001A60E2E7064C206808432060D4E700F0CB
:105250004BF9DAE700FFFF2F7D100020A01F002090
:105260007C220220E422022004ED00E0F0B5CE46CC
:10527000474680B51D00324B14001A78D0231B0618
:105280001B688046894683B09A420FD00368BFF3FB
:105290005F8F00221A6081F3108820002900FBF73D
:1052A00077FF03B0C0BCB946B046F0BDFCF708F8C4
:1052B00026002F00361A8F410121224849428019C9
:1052C000794143461E6800291EDC19D0BFF35F8F69
:1052D0000023336089F310881B4B5A6A954205D826
:1052E0009B6A0120A342DCD29542DAD18022174B7F
:1052F00052051A60BFF34F8FBFF36F8F0020D0E7C6
:10530000FA239B009842E1D3FA2200239200FCF793
:105310009FFB031EDAD049460D4A16600D4A116004
:105320000D4A022194466644B610FF31B1400B4A43
:10533000090A106800930122002300F079F8CBE7F6
:105340007D10002018FCFFFF0040054004ED00E048
:105350003C2200206022022000FFFF2FE4220220D6
:1053600010B5FBF7B5F8054A054B9446604480003C
:10537000186000F051F8034B186010BD4000003475
:10538000A01F0020E4220220F8B5DE4657464E4614
:105390004546E0B505000F00060000F077FF2968DC
:1053A0002C6939430C362960A6422CD0002398463C
:1053B0008023DB049B4680235B049A4680239B0466
:1053C00099460FE06746002F0AD057463A4202D06E
:1053D00042461A4390464B46194301F01BFA29688E
:1053E000A6420ED020000F000268646813021B0A58
:1053F0001F40BC465F463A42E4D06345E5D0A64232
:10540000F0D143469943296000F048FFF0BCBB4609
:10541000B246A946A046F8BD10B51C20FFF774FCA3
:10542000041E03D0002308C000F0B4F8200010BD13
:10543000F0B5C6460D00060000B51F00904600F00E
:1054400025FF2B0034682340002F0DD1002B28D0DE
:105450004346002B28D02300AB43336000F01EFFEF
:10546000200080BCB846F0BD9D42F1D0069B002BC9
:105470001AD0434680215A1E9341C9041B06194382
:10548000069A2943301D01F0A3F800F007FF002819
:1054900024D001F08DFA040083010DD52402240AE2
:1054A000DEE7069B002B02D100F0F8FED8E741466C
:1054B0004B1E99410906E3E7FFF7B8FD3468230066
:1054C0002B40002F0DD1002B05D04346002B02D0DE
:1054D0002300AB433360FFF7B5FDDFE7FFF79AFD2D
:1054E000D7E7AB42F7D1F0E7F8B5DE4657464E4670
:1054F0004546E0B505000F00060000F0C7FE29682C
:105500002C6939430C362960A6422CD000239846DA
:105510008023DB049B4680235B049A4680239B0404
:1055200099460FE06746002F0AD057463A4202D00C
:1055300042461A4390464B46194301F06BF92968DD
:10554000A6420ED020000F000268646813021B0AF6
:105550001F40BC465F463A42E4D06345E5D0A642D0
:10556000F0D143469943296000F098FE2868F0BCCA
:10557000BB46B246A946A046F8BDC04610B5044C8D
:1055800013000A000100200001F024FC10BDC046F9
:10559000895300100300083301224360C360036194
:1055A00000235242826003607047C04600230361BB
:1055B0007047C046030030B50D6808336A1C0DD033
:1055C0001C005B681A68AA42FAD94B6099600368AC
:1055D0008C60013361600861036030BD04696368F9
:1055E000F3E7C0460369416882688A605160596880
:1055F000814206D0002202611A68013A1A601868D6
:1056000070475A60F6E7C046F0B5DE464E4657464C
:105610004546E0B585B00600FFF708FD4523F45C7C
:1056200064B2002C21DD213B994621339A46B144D6
:1056300009E0AA6BEB6B03969A4245D3013CE3B2B7
:1056400064B2002B11D0B56C002DF2D1736A002B1F
:105650000BD0484601F078F80028EFD001F06AF945
:10566000013CE3B264B2002BEDD14523FF22F2549A
:10567000FFF7E8FCFFF7DAFC44233500F45C103553
:1056800064B2002C05DC13E0013CE2B264B2002AF3
:105690000ED03369002B0BD0280001F055F80028FC
:1056A000F2D0013C01F046F9E2B264B2002AF0D136
:1056B0004423FF22F254FFF7C5FC05B0F0BCBB4603
:1056C000B246A946A046F0BD5346EF5CAB6B2A6CD0
:1056D000013398467FB2002A13D12B689B46002BDA
:1056E0002AD04346AB637B1C1CD16B6A002BA5D030
:1056F0002800243001F028F800289FD001F01AF982
:10570000AEE7686803A9FCF78DFC6B682A6C9B18F0
:10571000AA686B609342E4D32B686B604346AB632B
:105720007B1CE2D000F0BCFEB84200D886E75346AE
:1057300001377FB2EF5481E7A86801F007F95B46B3
:10574000AB6043460190AB637B1C09D16B6A002BB5
:105750000FD1019B002B00D170E701F0EBF87FE740
:1057600000F09EFEB842F4D9534601377FB2EF54A1
:10577000EFE72800243000F0E7FF002800D06DE7B5
:10578000E7E7C046F0B5C64600B5846C82B0A26BB0
:10579000E36B002501909A4204D3280002B080BC3C
:1057A000B846F0BD4523226CE65CA76B76B2002AB2
:1057B0001CD0606801A9FCF735FC6368226C9B185B
:1057C000A2686360934201D32368636000250137B8
:1057D000A763731C15D1636A002BDED02000243030
:1057E00000F0B2FF0028D8D00125D6E723689846FC
:1057F000002BEBD1A06801F0A9F843460500A36097
:10580000E5E700F04DFE8642C7D24523013676B269
:10581000E654C2E7F8B505000E001700002841D095
:10582000030C0A0C002B42D1002A30D1300068430F
:105830000300553336D85430FFF766FA041E31D0D2
:105840000300002E31D12360E5632664FFF7EEFBF1
:10585000216CE36B22684B43D0185B1A6260D2184C
:10586000E260FF2300254422A0602000A563A3542A
:105870000132A3541030FFF78DFE20002430FFF7D3
:1058800089FEFFF7DFFB5023E754A5640BE0131CF0
:10589000A9B2B2B24A4380B29BB24343120C9B18E6
:1058A0001B0CC3D000242000F8BD5433CBE7002AE2
:1058B000F8D1081CECE7C046F8B55746DE464E4620
:1058C00045460400E0B592461D000F00FFF7D4FBEB
:1058D000A26BE36B06009A423BD300239846022D4D
:1058E00009D03000FFF7CCFB4046F0BCBB46B246C7
:1058F000A946A046F8BD4533E35C226C5BB29846EE
:10590000A36B9B46A36B9946002A2DD03900E06813
:10591000FCF788FB226CE36851429B1A2268E36023
:10592000934202D2A3685B18E3604B46022D51D02C
:105930000133A363434601333DD000F0B1FD804500
:1059400004D24346452201335BB2A3540123984657
:10595000C7E74523E35C226C5BB29846A36B9B468A
:10596000A36B9946002A11D12768002F46D04B46D9
:105970000133A36343460133DFD1A36C002B33D043
:10598000022D1BD15B46002B18D0DFE7002DBDD1C7
:1059900039006068FCF746FB49466368226C0131B8
:1059A0009B18A2686360934201D3236863604346F7
:1059B000A1630133C1D1A36C002B15D02000FFF7E8
:1059C000E1FE0028C2D05346002BBFD0012352462F
:1059D0001360BBE7002B00D10123A36343460133CF
:1059E000ABD1A36C002BCDD1636A002BAED02000CD
:1059F000243000F0A9FE0028E5D1A7E7A06800F058
:105A0000A5FFA760B3E7C046F0B54746CE46040001
:105A100080B585B088460192FFF708FBA76B002F81
:105A20005ED1019B002B3BD002A800F03DFF00237C
:105A3000442699464525FFF705FB00F027FCFFF7B4
:105A4000F5FAA35D5BB2013301D14B46A355635D0B
:105A50005BB2013301D14B466355FFF7F3FA01A95D
:105A600002A800F02DFF002822D1FFF7DFFAA36B78
:105A7000002B2AD1FFF7E6FA20000199243000F02C
:105A80005DFD2000FFF7C0FD00F008FC002824D0D9
:105A9000FFF7CCFAA76B002F22D1019B002BCAD1B4
:105AA000FFF7D0FA002005B0C0BCB946B046F0BD43
:105AB0002000FFF7A9FD00F0F1FBFFF7B7FAA36B99
:105AC000002BEDD0FFF7BEFAE2E7FFF7BBFA2000AC
:105AD000FFF79AFD00F0E2FBDAE7FFF79BFAD7E762
